:020000040800F2
:1000000000500020D1B00008515E0008615E000879
:10001000715E0008815E0008915E0008000000002B
:100020000000000000000000000000000197000830
:10003000A15E000800000000D1980008199900088E
:1000400019B1000819B1000819B1000819B1000868
:1000500019B1000819B1000819B1000819B1000858
:1000600019B1000819B1000819B1000819B1000848
:1000700019B1000819B1000819B1000819B1000838
:1000800019B1000819B1000819B1000819B1000828
:1000900019B1000819B1000819B1000819B1000818
:1000A00019B1000819B1000819B1000819B1000808
:1000B000B55E0008C95E0008DD5E000819B10008E1
:1000C00019B1000819B1000819B1000819B10008E8
:1000D00019B100081D5F000819B1000819B1000826
:1000E00019B1000819B1000819B10008000000009A
:1000F0000000000000000000000000000000000000
:0C01000000000000000000005FF808F1A3
:1001100010B5054C237833B9044B13B10448AFF341
:1001200000800123237010BDD800002000000000D3
:10013000A4D70008084B10B51BB108490848AFF315
:1001400000800848036803B910BD074B002BFBD0A3
:10015000BDE81040184700BF00000000DC00002090
:10016000A4D70008D80000200000000081F0004162
:1001700002E000BF83F0004330B54FEA41044FEA8C
:10018000430594EA050F08BF90EA020F1FBF54EA27
:10019000000C55EA020C7FEA645C7FEA655C00F0C3
:1001A000E2804FEA5454D4EB5555B8BF6D420CDD94
:1001B0002C4480EA020281EA030382EA000083EA17
:1001C000010180EA020281EA0303362D88BF30BDB7
:1001D00011F0004F4FEA01314FF4801C4CEA11310D
:1001E00002D0404261EB410113F0004F4FEA03336C
:1001F0004CEA133302D0524263EB430394EA050FF7
:1002000000F0A780A4F10104D5F1200E0DDB02FA65
:100210000EFC22FA05F2801841F1000103FA0EF2F9
:10022000801843FA05F359410EE0A5F120050EF1BF
:10023000200E012A03FA0EFC28BF4CF0020C43FAF0
:1002400005F3C01851EBE37101F0004507D54FF0FD
:10025000000EDCF1000C7EEB00006EEB0101B1F54D
:10026000801F1BD3B1F5001F0CD349085FEA300093
:100270004FEA3C0C04F101044FEA445212F5800F9E
:1002800080F09A80BCF1004F08BF5FEA500C50F13B
:10029000000041EB045141EA050130BD5FEA4C0C1E
:1002A000404141EB010111F4801FA4F10104E9D1A7
:1002B00091F0000F04BF01460020B1FA81F308BF9E
:1002C0002033A3F10B03B3F120020CDA0C3208DD6A
:1002D00002F1140CC2F10C0201FA0CF021FA02F145
:1002E0000CE002F11402D8BFC2F1200C01FA02F1B5
:1002F00020FA0CFCDCBF41EA0C019040E41AA2BFDA
:1003000001EB0451294330BD6FEA04041F3C1CDAA1
:100310000C340EDC04F11404C4F1200220FA04F0C1
:1003200001FA02F340EA030021FA04F345EA03016B
:1003300030BDC4F10C04C4F1200220FA02F001FA2D
:1003400004F340EA0300294630BD21FA04F02946AF
:1003500030BD94F0000F83F4801306BF81F4801148
:100360000134013D4EE77FEA645C18BF7FEA655CBB
:1003700029D094EA050F08BF90EA020F05D054EA8D
:10038000000C04BF1946104630BD91EA030F1EBF92
:100390000021002030BD5FEA545C05D14000494196
:1003A00028BF41F0004130BD14F580043CBF01F589
:1003B000801130BD01F0004545F0FE4141F470016F
:1003C0004FF0000030BD7FEA645C1ABF194610464A
:1003D0007FEA655C1CBF0B46024650EA013406BF4B
:1003E00052EA033591EA030F41F4002130BD00BF0A
:1003F00090F0000F04BF0021704730B54FF48064C7
:1004000004F132044FF000054FF0000150E700BF47
:1004100090F0000F04BF0021704730B54FF48064A6
:1004200004F1320410F0004548BF40424FF0000193
:100430003EE700BF42004FEAE2014FEA31014FEAD6
:1004400002701FBF12F07F4393F07F4F81F0605125
:10045000704792F0000F14BF93F07F4F704730B594
:100460004FF4607401F0004521F0004120E700BF27
:1004700050EA010208BF704730B54FF000050AE0AE
:1004800050EA010208BF704730B511F0004502D5AF
:10049000404261EB41014FF4806404F132045FEAB1
:1004A000915C3FF4DCAE4FF003025FEADC0C18BF56
:1004B00003325FEADC0C18BF033202EBDC02C2F14C
:1004C000200300FA03FC20FA02F001FA03FE40EADE
:1004D0000E0021FA02F11444C1E600BF70B54FF0DE
:1004E000FF0C4CF4E06C1CEA11541DBF1CEA1355C0
:1004F00094EA0C0F95EA0C0F00F0DEF82C4481EA28
:10050000030621EA4C5123EA4C5350EA013518BF47
:1005100052EA033541F4801143F4801338D0A0FB34
:1005200002CE4FF00005E1FB02E506F00042E0FBE1
:1005300003E54FF00006E1FB03569CF0000F18BFE7
:100540004EF0010EA4F1FF04B6F5007F64F540748F
:1005500004D25FEA4E0E6D4146EB060642EAC62122
:1005600041EA55514FEAC52040EA5E504FEACE2E8F
:10057000B4F1FD0C88BFBCF5E06F1ED8BEF1004F92
:1005800008BF5FEA500E50F1000041EB045170BD0E
:1005900006F0004646EA010140EA020081EA030152
:1005A000B4EB5C04C2BFD4EB0C0541EA045170BD4E
:1005B00041F480114FF0000E013C00F3AB8014F1C8
:1005C000360FDEBF002001F0004170BDC4F1000411
:1005D000203C35DA0C341BDC04F11404C4F1200592
:1005E00000FA05F320FA04F001FA05F240EA0200ED
:1005F00001F0004221F0004110EBD37021FA04F623
:1006000042EB06015EEA430E08BF20EAD37070BDDC
:10061000C4F10C04C4F1200500FA04F320FA05F03B
:1006200001FA04F240EA020001F0004110EBD3703D
:1006300041F100015EEA430E08BF20EAD37070BDAD
:10064000C4F1200500FA05F24EEA020E20FA04F386
:1006500001FA05F243EA020321FA04F001F0004135
:1006600021FA04F220EA020000EBD3705EEA430EA6
:1006700008BF20EAD37070BD94F0000F0FD101F0D5
:100680000046400041EB010111F4801F08BF013C0E
:10069000F7D041EA060195F0000F18BF704703F04C
:1006A0000046520043EB030313F4801F08BF013DD3
:1006B000F7D043EA0603704794EA0C0F0CEA13558F
:1006C00018BF95EA0C0F0CD050EA410618BF52EA49
:1006D0004306D1D181EA030101F000414FF000004F
:1006E00070BD50EA410606BF1046194652EA43065D
:1006F00019D094EA0C0F02D150EA013613D195EAD1
:100700000C0F05D152EA03361CBF104619460AD118
:1007100081EA030101F0004141F0FE4141F4700122
:100720004FF0000070BD41F0FE4141F4780170BD12
:1007300070B54FF0FF0C4CF4E06C1CEA11541DBF77
:100740001CEA135594EA0C0F95EA0C0F00F0A7F879
:10075000A4EB050481EA030E52EA03354FEA0131A6
:1007600000F088804FEA03334FF0805545EA1313B9
:1007700043EA12634FEA022245EA111545EA106581
:100780004FEA00260EF000419D4208BF964244F118
:10079000FD0404F5407402D25B084FEA3202B61A37
:1007A00065EB03055B084FEA32024FF480104FF40B
:1007B000002CB6EB020E75EB030E22BFB61A75467F
:1007C00040EA0C005B084FEA3202B6EB020E75EB12
:1007D000030E22BFB61A754640EA5C005B084FEA7A
:1007E0003202B6EB020E75EB030E22BFB61A754647
:1007F00040EA9C005B084FEA3202B6EB020E75EB52
:10080000030E22BFB61A754640EADC0055EA060E12
:1008100018D04FEA051545EA16754FEA06164FEA55
:10082000C30343EA52734FEAC2025FEA1C1CC0D101
:1008300011F4801F0BD141EA00014FF000004FF08E
:10084000004CB6E711F4801F04BF01430020B4F14F
:10085000FD0C88BFBCF5E06F3FF6AFAEB5EB030C07
:1008600004BFB6EB020C5FEA500C50F1000041EB04
:10087000045170BD0EF0004E4EEA113114EB5C04D1
:10088000C2BFD4EB0C0541EA045170BD41F48011A4
:100890004FF0000E013C90E645EA060E8DE60CEAAC
:1008A000135594EA0C0F08BF95EA0C0F3FF43BAFC9
:1008B00094EA0C0F0AD150EA01347FF434AF95EA80
:1008C0000C0F7FF425AF104619462CE795EA0C0F64
:1008D00006D152EA03353FF4FDAE1046194622E731
:1008E00050EA410618BF52EA43067FF4C5AE50EA0B
:1008F00041047FF40DAF52EA43057FF4EBAE12E7FB
:100900004FEA410212F5001215D211D56FF4787337
:10091000B3EB625212D94FEAC12343F0004343EADA
:10092000505311F0004F23FA02F018BF40427047B5
:100930004FF00000704750EA013005D111F000403F
:1009400008BF6FF0004070474FF00000704700BFD5
:100950004FEA4102B2F1E04324BFB3F5001CDCF1E1
:10096000FE5C0DD901F0004C4FEAC0024CEA507019
:10097000B2F1004F40EB830008BF20F00100704748
:1009800011F0804F21D113F13872BCBF01F000404B
:10099000704741F480114FEA5252C2F11802C2F17D
:1009A000200C10FA0CF320FA02F018BF40F00100FE
:1009B0004FEAC1234FEAD32303FA0CFC40EA0C00B0
:1009C00023FA02F34FEA4303CCE77FEA625307D1ED
:1009D00050EA01331EBF4FF0FE4040F44000704724
:1009E00001F0004040F0FE4040F40000704700BFBE
:1009F00080F0004002E000BF81F0004142001FBFD4
:100A00005FEA410392EA030F7FEA226C7FEA236CDC
:100A10006AD04FEA1262D2EB1363C1BFD2184140D1
:100A200048404140B8BF5B42192B88BF704710F067
:100A3000004F40F4000020F07F4018BF404211F00A
:100A4000004F41F4000121F07F4118BF494292EA72
:100A5000030F3FD0A2F1010241FA03FC10EB0C009E
:100A6000C3F1200301FA03F100F0004302D549422B
:100A700060EB4000B0F5000F13D3B0F1807F06D3D8
:100A800040084FEA310102F10102FE2A51D2B1F1D0
:100A9000004F40EBC25008BF20F0010040EA0300C5
:100AA0007047490040EB000010F4000FA2F1010272
:100AB000EDD1B0FA80FCACF1080CB2EB0C0200FAFC
:100AC0000CF0AABF00EBC25052421843BCBFD0404A
:100AD0001843704792F0000F81F4000106BF80F4C4
:100AE00000000132013BB5E74FEA41037FEA226C87
:100AF00018BF7FEA236C21D092EA030F04D092F052
:100B0000000F08BF0846704790EA010F1CBF002085
:100B1000704712F07F4F04D1400028BF40F00040E2
:100B2000704712F100723CBF00F50000704700F002
:100B3000004343F0FE4040F4000070477FEA226229
:100B400016BF08467FEA23630146420206BF5FEAFA
:100B5000412390EA010F40F4800070474FF00003FA
:100B600004E000BF10F0004348BF40425FEA000CC1
:100B700008BF704743F0964301464FF000001CE069
:100B800050EA010208BF70474FF000030AE000BFBF
:100B900050EA010208BF704711F0004302D54042FD
:100BA00061EB41015FEA010C02BF8446014600206F
:100BB00043F0B64308BFA3F18053A3F50003BCFA8A
:100BC0008CF2083AA3EBC25310DB01FA02FC634437
:100BD00000FA02FCC2F12002BCF1004F20FA02F23E
:100BE00043EB020008BF20F00100704702F1200231
:100BF00001FA02FCC2F1200250EA4C0021FA02F292
:100C000043EB020008BF20EADC7070474FF0FF0C96
:100C10001CEAD0521EBF1CEAD15392EA0C0F93EA91
:100C20000C0F6FD01A4480EA010C400218BF5FEA33
:100C300041211ED04FF0006343EA501043EA5111A6
:100C4000A0FB01310CF00040B1F5000F3EBF4900A0
:100C500041EAD3715B0040EA010062F17F02FD2AA4
:100C60001DD8B3F1004F40EBC25008BF20F0010087
:100C7000704790F0000F0CF0004C08BF49024CEA9E
:100C8000502040EA51207F3AC2BFD2F1FF0340EA30
:100C9000C250704740F400004FF00003013A5DDCA1
:100CA00012F1190FDCBF00F000407047C2F10002E2
:100CB000410021FA02F1C2F1200200FA02FC5FEACF
:100CC000310040F1000053EA4C0308BF20EADC7019
:100CD000704792F0000F00F0004C02BF400010F48B
:100CE000000F013AF9D040EA0C0093F0000F01F038
:100CF000004C02BF490011F4000F013BF9D041EA5A
:100D00000C018FE70CEAD15392EA0C0F18BF93EA5B
:100D10000C0F0AD030F0004C18BF31F0004CD8D185
:100D200080EA010000F00040704790F0000F17BF0C
:100D300090F0004F084691F0000F91F0004F14D052
:100D400092EA0C0F01D142020FD193EA0C0F03D1AA
:100D50004B0218BF084608D180EA010000F00040AD
:100D600040F0FE4040F40000704740F0FE4040F488
:100D7000400070474FF0FF0C1CEAD0521EBF1CEA27
:100D8000D15392EA0C0F93EA0C0F69D0A2EB030245
:100D900080EA010C49024FEA402037D04FF08053DF
:100DA00043EA111143EA10130CF000408B4238BFA4
:100DB0005B0042F17D024FF4000C8B4224BF5B1AB2
:100DC00040EA0C00B3EB510F24BFA3EB510340EA00
:100DD0005C00B3EB910F24BFA3EB910340EA9C00AE
:100DE000B3EBD10F24BFA3EBD10340EADC001B011E
:100DF00018BF5FEA1C1CE0D1FD2A3FF650AF8B42C2
:100E000040EBC25008BF20F0010070470CF0004CCE
:100E10004CEA50207F32C2BFD2F1FF0340EAC250F9
:100E2000704740F400004FF00003013A37E792F0BA
:100E3000000F00F0004C02BF400010F4000F013A18
:100E4000F9D040EA0C0093F0000F01F0004C02BF13
:100E5000490011F4000F013BF9D041EA0C0195E77C
:100E60000CEAD15392EA0C0F08D142027FF47DAF15
:100E700093EA0C0F7FF470AF084676E793EA0C0F05
:100E800004D14B023FF44CAF08466EE730F0004C03
:100E900018BF31F0004CCAD130F000427FF45CAF93
:100EA00031F000437FF43CAF5FE700BF4FF0FF3C01
:100EB00006E000BF4FF0010C02E000BF4FF0010C54
:100EC0004DF804CD4FEA40024FEA41037FEA226C1D
:100ED00018BF7FEA236C11D001B052EA530C18BF3F
:100EE00090EA010F58BFB2EB030088BFC81738BFA4
:100EF0006FEAE17018BF40F0010070477FEA226C92
:100F000002D15FEA402C05D17FEA236CE4D15FEA8D
:100F1000412CE1D05DF8040B704700BF84460846C1
:100F20006146FFE70FB5FFF7C9FF002848BF10F182
:100F3000000F0FBD4DF808EDFFF7F4FF0CBF0120C7
:100F400000205DF808FB00BF4DF808EDFFF7EAFF51
:100F500034BF012000205DF808FB00BF4DF808ED0C
:100F6000FFF7E0FF94BF012000205DF808FB00BF01
:100F70004DF808EDFFF7D2FF94BF012000205DF887
:100F800008FB00BF4DF808EDFFF7C8FF34BF012094
:100F900000205DF808FB00BF4FEA4002B2F1FE4FAF
:100FA0000FD34FF09E03B3EB12620DD94FEA00232B
:100FB00043F0004310F0004F23FA02F018BF404204
:100FC00070474FF00000704712F1610F01D14202EB
:100FD00005D110F0004008BF6FF0004070474FF09F
:100FE0000000704742000ED2B2F1FE4F0BD34FF01B
:100FF0009E03B3EB126209D44FEA002343F000438F
:1010000023FA02F070474FF00000704712F1610FB1
:1010100001D1420202D14FF0FF3070474FF0000083
:10102000704700BF7BB972B90029BEBF00204FF0E6
:10103000004106E008BF00281CBF6FF000414FF0E0
:10104000FF3000F0B5B9ADF1080C6DE904CE002910
:1010500009DB002B1ADB00F035F8DDF804E0DDE9F0
:10106000022304B07047404261EB4101002B1BDBBF
:1010700000F028F8DDF804E0DDE9022304B0404286
:1010800061EB4101524263EB43037047524263EB11
:10109000430300F017F8DDF804E0DDE9022304B0B3
:1010A000404261EB41017047524263EB430300F061
:1010B00009F8DDF804E0DDE9022304B0524263EBF5
:1010C000430370472DE9F04F8C460C460546099EB8
:1010D000002B4FD18A4217466BD9B2FA82FEBEF17D
:1010E000000F0BD0CEF1200520FA05F501FA0EF322
:1010F00045EA030C02FA0EF700FA0EF5390CBCFBB8
:10110000F1F0BAB201FB10C300FB02F84FEA154C34
:101110004CEA0344A04509D9E41900F1FF3380F0FB
:101120002881A04540F2258102383C44C8EB0404E4
:10113000B4FBF1F301FB134C03FB02F2ACB244EA43
:101140000C418A4209D9C91903F1FF3480F00F819B
:101150008A4240F20C81023B39448A1A43EA004039
:101160000021002E63D022FA0EF2002386E80C0044
:10117000BDE8F08F8B4207D9002E56D0002186E8BB
:1011800011000846BDE8F08FB3FA83F1002940F062
:101190009380A34202D3824200F2FE80851A64EB60
:1011A00003039C460120002E41D086E82010BDE8B4
:1011B000F08F12B90127B7FBF2F7B7FA87FEBEF13D
:1011C000000F36D1E41B4FEA17481FFA87F90121B7
:1011D000B4FBF8F308FB134409FB03F24FEA154C88
:1011E0004CEA0444A24207D9E41903F1FF3002D2C9
:1011F000A24200F2D3800346A41AB4FBF8F008FB25
:10120000104809FB00F9ACB244EA0842914507D9FD
:10121000D21900F1FF3402D2914500F2BA80204683
:10122000C9EB020240EA03409BE731463046BDE885
:10123000F08F07FA0EF7CEF1200C24FA0CF34FEAE8
:101240001748B3FBF8FA1FFA87F908FB1A3520FA9A
:101250000CFC04FA0EF40AFB09FB4CEA040C4FEAFE
:101260001C4242EA05439B4500FA0EF50AD9DB19F8
:101270000AF1FF3280F08B809B4540F28880AAF112
:10128000020A3B44CBEB0303B3FBF8F008FB10333B
:1012900000FB09F41FFA8CFC4CEA03439C4207D97B
:1012A000DB1900F1FF326ED29C426CD902383B440C
:1012B0001C1B40EA0A418BE7C1F1200E8B4022FA49
:1012C0000EFC4CEA030C24FA0EF74FEA1C49B7FB5C
:1012D000F9FA1FFA8CF309FB1A7720FA0EF88C4002
:1012E0000AFB03F548EA04044FEA144848EA0747B2
:1012F000BD4202FA01F200FA01FB09D917EB0C0713
:101300000AF1FF3041D2BD423FD9AAF1020A674437
:101310007F1BB7FBF9F509FB157705FB03F3A4B2B7
:1013200044EA0747BB4208D917EB0C0705F1FF3029
:1013300027D2BB4225D9023D674445EA0A40A0FBBB
:101340000289FF1A4F4545464C4614D329D066B34F
:10135000BBEB050367EB040707FA0EFECB40CF405B
:101360004EEA030386E888000021BDE8F08F23469B
:10137000F3E61846DAE6B8EB020569EB0C0401382F
:10138000E5E70546D9E7104692E78246C0E7924670
:1013900078E702383A4443E7084604E7023B3C4416
:1013A0002AE7C345E7D33C46D1E73146BDE8F08F95
:1013B000704700BF4FF0FF3C06E000BF4FF0010C4C
:1013C00002E000BF4FF0010C4DF804CD4FEA410C94
:1013D0007FEA6C5C4FEA430C18BF7FEA6C5C1BD061
:1013E00001B050EA410C0CBF52EA430C91EA030FE2
:1013F00002BF90EA020F0020704710F1000F91EA3F
:10140000030F58BF994208BF90422CBFD8176FEA0C
:10141000E37040F0010070474FEA410C7FEA6C5CDA
:1014200002D150EA013C07D14FEA430C7FEA6C5CE1
:10143000D6D152EA033CD3D05DF8040B704700BF0D
:101440008446104662468C461946634600E000BF5B
:1014500001B5FFF7B7FF002848BF10F1000F01BD2D
:101460004DF808EDFFF7F4FF0CBF012000205DF8F8
:1014700008FB00BF4DF808EDFFF7EAFF34BF01207D
:1014800000205DF808FB00BF4DF808EDFFF7E0FF16
:1014900094BF012000205DF808FB00BF4DF808ED67
:1014A000FFF7CEFF94BF012000205DF808FB00BFCE
:1014B0004DF808EDFFF7C4FF34BF012000205DF8B0
:1014C00008FB00BF4FEA410C7FEA6C5C02D150EA96
:1014D000013C0AD14FEA430C7FEA6C5C02D152EA2C
:1014E000033C02D14FF0000070474FF001007047FD
:1014F00080B400AF074B084A1A60064B1B68074AC6
:10150000A2FB03239B099AB2054B1A8000BFBD467C
:1015100080BC7047F800002040420F00D34D62109D
:10152000F400002080B489B000AF786000237B61B4
:101530000023FB6100233B610023BB610023FB60B0
:101540001B4B1B68DB6AFB601A4B1B881A467B68C7
:1015500003FB02F37B61164B1B685B6AFB61144B58
:101560001B685B6A3B613A69FB699A42F7D03A694A
:10157000FB699A4206D2FA693B69D31ABA691344E5
:10158000BB6107E0FA683B69D21AFB691344BA6988
:101590001344BB613B69FB61BA697B699A4200D223
:1015A000DDE700BF00BF2437BD4680BC704700BFE9
:1015B00040090020F400002080B489B000AF7860BA
:1015C00000237B610023FB6100233B610023BB619F
:1015D0000023FB601A4B1B68DB6AFB60194B1A681F
:1015E0007B6802FB03F37B61154B1B685B6AFB6145
:1015F000134B1B685B6A3B613A69FB699A42F7D0FF
:101600003A69FB699A4206D2FA693B69D31ABA6908
:101610001344BB6107E0FA683B69D21AFB691344C3
:10162000BA691344BB613B69FB61BA697B699A4241
:1016300000D2DDE700BF00BF2437BD4680BC704745
:1016400040090020F800002080B500AF164A164B74
:101650005B6823F0F0035360134A134B5B6843F05D
:1016600030035360114B01221A60114B1B68002B91
:1016700001D1002315E00F4B01221A600120FFF772
:1016800051FF0A4B00221A60094B1B68002B01D046
:10169000002306E00120FFF745FF064B00221A60F9
:1016A0000123184680BD00BF000C0140A4812142E7
:1016B00024812142A081214280B500AF0F4A0F4B07
:1016C0005B6823F0F00353600C4A0C4B5B6843F0FB
:1016D000300353600A4B00221A600A4B00221A6042
:1016E0000120FFF71FFF064B01221A60054B012264
:1016F0001A600120FFF716FF00BF80BD000C0140FB
:10170000A0812142A481214280B582B000AF002394
:10171000FB71194A184B5B6823F0F0035360164ABB
:10172000154B5B6843F080035360144B01221A6031
:101730000120FFF7F7FE124B01221A600120FFF78C
:10174000F1FE0CE0FB790133FB71FB79322B03D9FD
:10175000FFF7B2FF00230AE00120FFF7E3FE094B89
:101760001B68002BEED1064B00221A60012318469D
:101770000837BD4680BD00BF000C0140A481214256
:10178000A08121422481214280B500AF0F4B00226D
:101790001A600F4A0E4B5B6823F0F00353600C4A4B
:1017A0000B4B5B6843F0300353600A4B00221A6016
:1017B0000120FFF7B7FE054B01221A600120FFF759
:1017C000B1FE024B00221A6000BF80BDA081214201
:1017D000000C0140A481214280B500AF0F4B0022D4
:1017E0001A600F4A0E4B5B6823F0F00353600C4AFB
:1017F0000B4B5B6843F0300353600A4B01221A60C5
:101800000120FFF78FFE054B01221A600120FFF730
:1018100089FE024B00221A6000BF80BDA0812142D8
:10182000000C0140A481214280B584B000AF034682
:10183000FB71194A184B5B6823F0F0035360164A9A
:10184000154B5B6843F030035360144B00221A6061
:101850000023FB7319E0124AFB79DB09DBB213604A
:10186000FB795B00FB710120FFF75CFE0B4B012253
:101870001A600120FFF756FE084B00221A60012073
:10188000FFF750FEFB7B0133FB73FB7B072BE2D999
:1018900000BF1037BD4680BD000C0140A081214231
:1018A000A481214280B584B000AF3B600346FB7148
:1018B0000B46BB7113467B71FFF7C6FE0346002B38
:1018C00001D1012331E0FB795B00DBB21846FFF761
:1018D000ABFFFFF719FF0346002B03D1FFF7ECFE28
:1018E000012322E0BB791846FFF79EFFFFF70CFFAC
:1018F0000023FB6012E0FB683A6813441B7818462B
:10190000FFF792FFFFF700FF0346002B03D1FFF71D
:10191000D3FE002309E0FB680133FB607A79FB68A2
:101920009A42E8DCFFF7C8FE002318461037BD4690
:1019300080BD00BF80B582B000AF3B600346FB7145
:101940000B46BB7113467B71FFF77EFE0346002BEF
:1019500001D101233FE0FB795B00DBB21846FFF7C2
:1019600063FFFFF7D1FE0346002B03D1FFF7A4FE70
:10197000012330E0BB791846FFF756FFFFF7C4FE9E
:10198000FFF762FEFB795B00DBB20133DBB2184686
:10199000FFF74AFFFFF7B8FE17E07B79012B07D16D
:1019A000002000F01DF803461A463B681A7006E056
:1019B000012000F015F803461A463B681A703B6890
:1019C00001333B607B79013B7B717B79002BE4D158
:1019D000FFF772FE002318460837BD4680BD00BFE2
:1019E00080B584B000AF0346FB710023BB731C4A73
:1019F0001B4B5B6823F0F0035360194A184B5B687C
:101A000043F0800353600023FB7318E0154B002262
:101A10001A600220FFF786FD124B01221A60BB7B81
:101A20005B00BB73104B1B68002B02D0BB7B0133E8
:101A3000BB730220FFF776FDFB7B0133FB73FB7B5F
:101A4000072BE3D9FB79002B02D0FFF79DFE01E0C5
:101A5000FFF7C2FEBB7B18461037BD4680BD00BFF6
:101A6000000C0140A08121422481214280B584B034
:101A700000AF03460A46FB711346BB710023FB739C
:101A8000FFF7E2FDFB791846FFF7CEFEFB7B013343
:101A9000FB73FFF739FEBB791846FFF7C5FEFB7BEA
:101AA0000133FB73FFF730FEFFF7CEFDFB79013307
:101AB000DBB21846FFF7B8FEFB7B0133FB73FFF781
:101AC00023FE0020FFF78CFF0346FB73FFF7F4FDB6
:101AD000FB7B18461037BD4680BD00BF80B584B083
:101AE00000AF3B600346FB710B46BB7113467B7135
:101AF0000023FB73FFF7A8FDFB791846FFF794FE60
:101B0000FFF702FEBB791846FFF78EFEFFF7FCFDDC
:101B10000023FB730BE0FB7B3A6813441B781846E9
:101B2000FFF782FEFFF7F0FDFB7B0133FB73FA7BCF
:101B30007B799A42EFD3FFF7BFFD01231846103798
:101B4000BD4680BD80B582B000AF03463A60FB71F0
:101B50000B46BB71BA79FB7911461846FFF786FF31
:101B600003461A463B681A70012318460837BD46DB
:101B700080BD00BF80B582B000AF0346FB710B464D
:101B8000BB7113467B717B1DB979F8790122FFF790
:101B9000A5FF034618460837BD4680BD90B585B001
:101BA00000AF0446084611461A462346FB71034619
:101BB000BB710B467B7113463B7107F10E02B9797D
:101BC000FB791846FFF7BEFF0346002B37D07B7921
:101BD0000133FF2202FA03F35AB27B79C3F1080101
:101BE0003B790B44013BFF2141FA03F35BB2134302
:101BF0005BB2FB7397F820203B79C3F1080302FA2C
:101C000003F387F8203097F820207B79C3F107038E
:101C100042FA03F387F82030BA7BFB7B1340DBB238
:101C2000BB73BA7B97F820301343DBB2BB73BA7B2C
:101C3000B979FB791846FFF79DFF034600E00023C2
:101C400018461437BD4690BD90B585B000AF044628
:101C5000084611461A462346FB710346BB710B46E4
:101C60007B7113463B7107F10F02B979FB79184676
:101C7000FFF768FF3B79002B0AD07B79012202FA3B
:101C800003F35AB2FB7B5BB213435BB2DBB20BE0F4
:101C90007B79012202FA03F35BB2DB435AB2FB7B8E
:101CA0005BB213405BB2DBB2FB73FA7BB979FB79B1
:101CB0001846FFF75FFF034618461437BD4690BD30
:101CC00080B584B000AF0346FB71294B93F82430F4
:101CD000002B1CD0FB79002B02D00223FB7301E008
:101CE0000023FB73224B5B681878214B1B68D97B60
:101CF00007F10F030122FFF7D5FD0346002B02D0A9
:101D00004FF0FF3330E0FA7B194B5A742BE0184B3D
:101D10009B7A002B02D14FF0FF3325E0FB79002B9B
:101D200005D0134B5B7C002B01D000231CE0FB791A
:101D3000002B02D00123FB7301E00023FB730C4B4B
:101D40005B6818780A4B1B68D97B07F10F030122E7
:101D5000FFF7A8FD0346002B02D04FF0FF3303E04E
:101D6000FA7B034B5A74002318461037BD4680BDDA
:101D70000000002080B582B000AF80233B70824B12
:101D80005B681878804B1B68997C3B460122FFF703
:101D900089FD0346002B02D04FF0FF33EFE06420B3
:101DA000FFF70AFC00233B70774B5B681878764B93
:101DB0001B68997C3B460122FFF774FD0346002B0C
:101DC00002D04FF0FF33DAE06F4B5B6818786E4B50
:101DD0001B68997D3B460622FFF7ACFD0346002BAE
:101DE00002D04FF0FF33CAE07B799B005BB203F077
:101DF00004035AB2FB785B005BB203F002035BB2F0
:101E000013435AB27B785BB203F001035BB2134316
:101E10005BB2FB71FB79002B15D0FB79012B03D151
:101E2000594B0122DA7438E0FB79022B03D1564B6F
:101E30000022DA7431E0FB791946544809F0BCF904
:101E40004FF0FF339BE0504B5B6818784E4B1B689C
:101E5000D9783B460122FFF76DFD0346002B02D0E7
:101E60004FF0FF338BE03B7803F00F03FB71FB79FE
:101E7000002B05D1464809F011FA4FF0FF337EE000
:101E8000FB79042B06D1434809F008FA3E4B0122A6
:101E9000DA7402E03C4B0022DA743B4BFF229A7268
:101EA000394BFF221A72384BFF225A72364BFF22EF
:101EB000DA72354B4FF6FF72DA81334BFF221A7418
:101EC000314BFF229A74304B01221A732E4B0122A0
:101ED00083F822202C4B002283F823202A4B002257
:101EE0005A75294B00221A750C2200212A4809F044
:101EF0005BF9254B002283F82420234B002283F832
:101F00002520214B0022DA844FF4FA6000F0F4F926
:101F10000346002B02D04FF0FF3330E0022000F0E8
:101F200077FA0346002B02D04FF0FF3327E02A2038
:101F300000F012FB0346002B02D04FF0FF331EE0EF
:101F4000322000F06FFB0346002B02D04FF0FF332E
:101F500015E0002000F052FC0346002B02D04FF0A9
:101F6000FF330CE0002000F021FD0346002B02D0DF
:101F70004FF0FF3303E0002000F092FC00231846EE
:101F80000837BD4680BD00BF00000020C0D7000854
:101F9000E8D7000838D800081600002080B584B0C3
:101FA00000AF0346FB71FB79282B02D94FF0FF33BA
:101FB0006AE0FB79002B1CD1002000F0BDFD00235E
:101FC0003B7307237B73324B5B681878304B1B687D
:101FD000997C07F10C030222FFF764FC0346002BF7
:101FE00002D04FF0FF334FE0294B00221A75002337
:101FF0004AE0012000F0A0FD20233B73FB79012B78
:1020000005D100237B73052000F0A6FA16E0FB79CA
:10201000052B05D801237B73052000F09DFA0DE008
:10202000FB79142B05D802237B730A2000F094FA65
:1020300004E003237B73142000F08EFA7B7B9B016A
:102040005BB243F007035BB2DBB27B73104B5B68A0
:1020500018780F4B1B68997C07F10C030222FFF7DD
:1020600021FC0346002B02D04FF0FF330CE0084B5D
:1020700008229A72064B00221A73054B01221A7528
:10208000002000F0BBFB002318461037BD4680BD82
:102090000000002080B582B000AF7B4B9B7A002B04
:1020A00002D14FF0FF33EBE00023FB71764B5B680E
:1020B0001878754B1B68D97BFB1D0122FFF7F2FBDB
:1020C0000346002B02D04FF0FF33D9E06E4B5B6824
:1020D00018786D4B1B685979FB1D0122FFF7E2FB55
:1020E0000346002B02D04FF0FF33C9E0664B5B681C
:1020F0001878654B1B681979FB1D0122FFF7D2FB8D
:102100000346002B02D04FF0FF33B9E05E4B93F84B
:102110002430002B59D00C23FB715B4B5B68187883
:10212000594B1B681979FB1D0122FFF7BBFB0346C6
:10213000002B02D04FF0FF33A2E0C023FB71524BC3
:102140009B7A03F00103002B04D0FB7943F02003BA
:10215000DBB2FB714C4B5B6818784B4B1B681979F1
:10216000FB1D0122FFF79EFB0346002B02D04FF020
:10217000FF3385E0444B5B7C002B02D00223FB71D4
:1021800001E00023FB71404B5B6818783E4B1B68F5
:10219000D97BFB1D0122FFF785FB0346002B02D0F4
:1021A0004FF0FF336CE00023FB71374B5B6818780E
:1021B000354B1B685979FB1D0122FFF773FB034662
:1021C000002B5CD04FF0FF335AE00423FB712E4B01
:1021D0005B6818782C4B1B681979FB1D0122FFF7EF
:1021E00061FB0346002B02D04FF0FF3348E0264B43
:1021F0009B7C002B05D1244B9B7A03F00103002B21
:1022000002D14023FB7101E06023FB711E4B5B6830
:1022100018781D4B1B681979FB1D0122FFF742FB43
:102220000346002B02D04FF0FF3329E0164B5B7CB6
:10223000002B02D00123FB7101E00023FB71124B44
:102240005B681878104B1B68D97BFB1D0122FFF7D8
:1022500029FB0346002B02D04FF0FF3310E00A4B5E
:102260005B681878084B1B685979084B0122FFF707
:1022700019FB0346002B02D04FF0FF3300E0002390
:1022800018460837BD4680BD000000201000002021
:1022900080B483B000AF7860164B1B7A032B1ED836
:1022A00001A252F823F000BFB9220008C1220008A1
:1022B000CB220008D52200087B68FA221A8012E09F
:1022C0007B684FF4FA721A800DE07B684FF47A72E3
:1022D0001A8008E07B684FF4FA621A8003E07B689A
:1022E00000221A8000BF002318460C37BD4680BC70
:1022F000704700BF0000002080B584B000AF0346E7
:10230000FB80254B9B7A002B02D14FF0FF333FE03F
:10231000FB88B3F5FA7F0FD0B3F5FA7F02DCFA2B16
:1023200007D012E0B3F57A7F09D0B3F5FA6F09D080
:102330000BE00023FB730BE00823FB7308E0102382
:10234000FB7305E01823FB7302E04FF0FF331FE03F
:10235000114B1A7AFB7BDB08DBB29A4201D10023D6
:1023600016E00D4B5B6818780B4B1B68997907F1E9
:102370000F030122FFF796FA0346002B02D04FF01D
:10238000FF3305E0FB7BDB08DAB2034B1A72002354
:1023900018461037BD4680BD0000002080B483B0D1
:1023A00000AF7860194B5B7A032B1BD801A252F85F
:1023B00023F000BFC5230008CD230008D523000863
:1023C000DD2300087B6802221A700EE07B6804227D
:1023D0001A700AE07B6808221A7006E07B681022F7
:1023E0001A7002E04FF0FF330AE0084BDB7C002B51
:1023F00005D07B681B785B00DAB27B681A7000231B
:1024000018460C37BD4680BC704700BF0000002056
:1024100080B584B000AF0346FB71304B9B7A002B34
:1024200002D14FF0FF3354E0FB79023B0E2B2DD845
:1024300001A252F823F000BF752400088D24000883
:102440007B2400088D2400088D2400088D240008BA
:10245000812400088D2400088D2400088D240008A4
:102460008D2400088D2400088D2400088D24000888
:10247000872400080023FB730BE00823FB7308E0AC
:102480001023FB7305E01823FB7302E04FF0FF33CA
:102490001FE0124B5A7AFB7BDB08DBB29A4201D178
:1024A000002316E00D4B5B6818780C4B1B68D9793C
:1024B00007F10F030122FFF7F5F90346002B02D0C5
:1024C0004FF0FF3305E0FB7BDB08DAB2034B5A72B7
:1024D000002318461037BD4680BD00BF0000002015
:1024E00080B483B000AF78601A4BDB7A013B052BD8
:1024F00026D801A252F823F011250008192500085A
:102500002125000829250008312500083925000863
:102510007B68BC221A8017E07B6862221A8013E075
:102520007B682A221A800FE07B6814221A800BE055
:102530007B680A221A8007E07B6805221A8003E084
:102540007B6800221A8000BF002318460C37BD4666
:1025500080BC70470000002080B584B000AF034607
:10256000FB80234B9B7A002B02D14FF0FF333BE0E3
:10257000FB88BB2B02D90123FB7319E0FB88612B7D
:1025800002D90223FB7313E0FB88292B02D9032312
:10259000FB730DE0FB88132B02D90423FB7307E0C8
:1025A000FB88092B02D90523FB7301E00623FB738B
:1025B0000F4BDA7AFB7B9A4201D1002314E00C4BDB
:1025C0005B6818780A4B1B68997807F10F030122A2
:1025D000FFF768F90346002B02D04FF0FF3303E00A
:1025E000FA7B034BDA72002318461037BD4680BDD4
:1025F0000000002080B483B000AF7860084B93F8EF
:102600002430002B02D04FF0FF3304E0044BDA8972
:102610007B681A80002318460C37BD4680BC704783
:102620000000002080B584B000AF0346FB802F4B34
:102630009B7A002B02D14FF0FF3353E02B4B93F8E2
:102640002430002B02D04FF0FF334BE0274B1B7D93
:10265000002B0FD0FB88002B09D0FB88282B06D835
:10266000FB88DBB21846FFF799FC00233AE0002014
:10267000FFF794FCFB88032B02D80423FB8006E0C1
:10268000FB88B3F57A7F02D94FF47A73FB80FB881D
:102690004FF47A7292FBF3F3DBB2013BDBB2FB73D4
:1026A000124B5B681878114B1B68597807F10F03C0
:1026B0000122FFF7F7F80346002B02D04FF0FF335B
:1026C00010E0FB7B01334FF47A7292FBF3F39AB282
:1026D000064BDA81054BDB895B089BB21846FFF796
:1026E0003BFF002318461037BD4680BD0000002088
:1026F00080B483B000AF7860144B1B7A032B1BD8D7
:1027000001A252F823F000BF192700082127000872
:1027100029270008312700087B680D4A1A600EE05F
:102720007B680C4A1A600AE07B680B4A1A6006E074
:102730007B680A4A1A6002E04FF0FF3300E0002392
:1027400018460C37BD4680BC704700BF0000002013
:102750000000034300008342333303423333834199
:1027600080B483B000AF78601B4B5B7A032B1FD81B
:1027700001A252F823F000BF892700089327000820
:102780009D270008A72700087B684FF480421A8025
:1027900011E07B6841F69C721A800CE07B684FF474
:1027A00080521A8007E07B684FF400621A8002E0D2
:1027B0004FF0FF330AE0084BDB7C002B05D07B6831
:1027C0001B885B089AB27B681A80002318460C3776
:1027D000BD4680BC704700BF0000002080B483B0BD
:1027E00000AF7860044B1A7C7B681A70002318468F
:1027F0000C37BD4680BC70470000002080B584B017
:1028000000AF0346FB710023FB60FB7923F001035B
:10281000FB71224B93F82430002B01D0002338E0C9
:102820001E4B9B7A002B02D14FF0FF3331E01B4B44
:102830001B7CFB72194B9A7AFB791340DAB2174B67
:102840001A74164B1B7CFA799A4203D04FF0FF336F
:10285000FB6001E00023FB60FB79002B03D10F4BF1
:102860001B7D002B03D00120FFF72AFA02E0002095
:10287000FFF726FAFB79002B0AD0FFF70BFC034683
:10288000002B05D0054AFB7A13744FF0FF3300E0AC
:10289000FB6818461037BD4680BD00BF0000002011
:1028A00080B584B000AF0346FB71FB7903F0700381
:1028B000002B02D00123FB7307E0FB79002B02D031
:1028C0000023FB7301E04023FB73374B5B681878F0
:1028D000354B1B68997C07F10F030122FEF7E2FFDD
:1028E0000346002B05D0304B00229A724FF0FF3385
:1028F00056E0FB7B23F04003DAB22B4B1A73002324
:10290000FB73FB7903F04003002B04D1FB7B43F006
:102910000403DBB2FB73FB7903F02003002B04D12B
:10292000FB7B43F00203DBB2FB73FB7903F0100384
:10293000002B04D1FB7B43F00103DBB2FB73FB797B
:1029400003F00803002B04D1FB7B43F03803DBB218
:10295000FB73154B5B681878134B1B68D97C07F128
:102960000F030122FEF79EFF0346002B05D00E4BFE
:1029700000229A724FF0FF3312E0FB79002B05D052
:10298000FB79082B02D0002000F0D6F8064AFB792C
:102990009372054B00221A753220FEF70DFE0023BC
:1029A00018461037BD4680BD0000002080B584B0B9
:1029B00000AF0346FB715F4B9B7CFA799A4201D1D1
:1029C0000023B2E0FB79002B50D05A4B5B6818789B
:1029D000584B1B68197907F10F030122FEF7AAFF74
:1029E0000346002B02D04FF0FF339EE0FB7B23F029
:1029F0002003DBB2FB734F4B5B6818784D4B1B68B1
:102A0000197907F10F030122FEF74CFF0346002B53
:102A100002D04FF0FF3388E00320FEF7CDFD022304
:102A2000FB73444B93F82230002B04D0FB7B63F004
:102A30007F03DBB2FB733F4B93F82330002B04D0B2
:102A4000FB7B43F03003DBB2FB733A4B5B681878D7
:102A5000384B1B68197D07F10F030122FEF722FF97
:102A60000346002B5DD04FF0FF335EE0314B5B68D7
:102A70001878304B1B68197907F10F030122FEF714
:102A800059FF0346002B02D04FF0FF334DE0294B96
:102A90009B7A03F00103002B05D0FB7B43F020035E
:102AA000DBB2FB7304E0FB7B23F02003DBB2FB73A0
:102AB000204B5B6818781F4B1B68197907F10F03CF
:102AC0000122FEF7EFFE0346002B02D04FF0FF334A
:102AD0002BE00320FEF770FD164B93F82230002BFD
:102AE00002D08023FB7301E00023FB73114B93F8AA
:102AF0002330002B04D0FB7B43F03003DBB2FB73AD
:102B00000C4B5B6818780B4B1B68197D07F10F03A2
:102B10000122FEF7C7FE0346002B02D04FF0FF3321
:102B200003E0044AFB799374002318461037BD462E
:102B300080BD00BF0000002080B584B000AF034618
:102B4000FB711E4B93F82330FA799A4201D100238E
:102B500030E0FB79002B02D03023FB7301E000232F
:102B6000FB73164B9B7C002B04D0FB7B43F00203D2
:102B7000DBB2FB73114B93F82230002B04D0FB7BAC
:102B800063F07F03DBB2FB730C4B5B6818780B4B75
:102B90001B68197D07F10F030122FEF783FE034630
:102BA000002B02D04FF0FF3304E0044AFB7982F897
:102BB0002330002318461037BD4680BD000000209A
:102BC00090B587B000AF7860424B5B68187807F12A
:102BD000100304220D21FEF7ADFE0346002B01D0A9
:102BE000072372E03B7CDB105BB203F01C035AB29C
:102BF000FB7C1B115BB203F003035BB213435BB2BC
:102C0000DBB23B737B7CDB105BB203F01C035AB27C
:102C1000FB7C9B105BB203F003035BB213435BB21C
:102C2000DBB27B73BB7CDB105BB203F01C035AB2DC
:102C3000FB7C5BB203F003035BB213435BB2DBB21A
:102C4000BB730023FB753CE0FB7D07F118021344C6
:102C500013F80C3C002B07D1FB7D9B007A681344D2
:102C60004FF000021A6029E0FB7D9B007A68134454
:102C7000194A1A600EE0FB7D9B007A68D418FB7D30
:102C80009B007A6813441B6814491846FDF7BEFF81
:102C900003462360FB7D07F118021A4412F80C2C3E
:102CA000013AD1B207F118021A4402F80C1C07F1DC
:102CB0001802134413F80C3C002BDCD1FB7D0133CC
:102CC000FB75FB7D022BBFD9002318461C37BD4680
:102CD00090BD00BF000000207B14AE3E1D5A843F13
:102CE00080B58AB000AF7860396000233B6207F19D
:102CF0000C031846FFF764FF00237B6267E07B6AE2
:102D00009B007A6813441A687B6A9B0039680B44FD
:102D10001B68D31A002BB8BF5B421846FDF722FF91
:102D200003464FF08F411846FEF724F80346FB6137
:102D30007B6A9B0007F12802134453F81C3C4FF0B8
:102D400000011846FEF7F6F80346002B25D17B6AF2
:102D50009B0007F12802134453F81C3C1946F869FC
:102D6000FEF708F803464FF07E511846FDF744FE83
:102D70000346BB61BB6923F00043194A114618465C
:102D8000FEF700F90346002B1ED001227B6A02FAEF
:102D900003F33A6A13433B6216E0124BF969184693
:102DA000FEF7F0F80346002B07D10F4BF9691846E0
:102DB000FEF7CAF80346002B06D001227B6A02FA0E
:102DC00003F33A6A13433B627B6A01337B627B6A9B
:102DD000022B94DD3B6A18462837BD4680BD00BFF4
:102DE000295C0F3E9A99993E3333733F80B588B082
:102DF00000AF786039600023BB61544B5B68187882
:102E000007F1080303220D21FEF794FD0346002B72
:102E100001D0072395E03B7A03F01F03DBB23B723E
:102E20007B7A03F01F03DBB27B72BB7A03F01F03D4
:102E3000DBB2BB720023FB617EE0FB699B007A681A
:102E400013441A68FB699B0039680B441B68D31A4A
:102E5000002BB8BF5B421846FDF784FE03464FF0D7
:102E60008F411846FDF786FF03463B6107F10802D4
:102E7000FB6913441B78002B44D083231846FDF7CD
:102E80006DFE034619463248FDF774FF03467B6129
:102E900005E030497869FDF7B9FE03467B6107F12B
:102EA0000802FB6913441B78013BD9B207F1080201
:102EB000FB6913440A461A7007F10802FB691344C0
:102EC0001B78002BE5D179693869FDF753FF03467C
:102ED0004FF07E511846FDF78FFD0346FB60FB68FF
:102EE00023F000431C4A11461846FEF74BF80346F0
:102EF000002B1ED00122FB6902FA03F3BA691343C7
:102F0000BB6116E0154B39691846FEF73BF80346DE
:102F1000002B07D1124B39691846FEF715F8034606
:102F2000002B06D00122FB6902FA03F3BA691343AE
:102F3000BB61FB690133FB61FB69022B7FF77DAF4E
:102F4000BB6918462037BD4680BD00BF0000002089
:102F500000B04C4554E3853F295C0F3E0000204102
:102F60000000D2422DE9F04F95B000AF786239628F
:102F70001346FB77012387F83C30002387F83D3068
:102F8000A34B5B681878A24B1B68997C07F13C0344
:102F90000222FEF787FC0346002B02D04FF0FF33DE
:102FA000F6E2C820FEF708FB002387F83C30984B78
:102FB0005B681878964B1B68D97B07F13C030122AC
:102FC000FEF770FC0346002B02D04FF0FF33DFE228
:102FD0008F4B5B6818788E4B1B68597907F13C035F
:102FE0000122FEF75FFC0346002B02D04FF0FF33B7
:102FF000CEE2874B5B681878854B1B68997C07F19C
:103000003C030122FEF74EFC0346002B02D04FF09A
:10301000FF33BDE27E4B5B6818787D4B1B68D97D22
:1030200007F13C030122FEF73DFC0346002B02D0D2
:103030004FF0FF33ACE2764B5B681878744B1B683B
:10304000197907F13C030122FEF72CFC0346002B03
:1030500002D04FF0FF339BE20C2387F83C306C4BDF
:103060005B6818786A4B1B68197907F13C030122E9
:10307000FEF718FC0346002B02D04FF0FF3387E227
:103080000F20FEF799FA624B9B6A5B7A87F83C3017
:103090005F4B5B6818785E4B1B68997807F13C03BF
:1030A0000122FEF7FFFB0346002B02D04FF0FF3357
:1030B0006EE2574B9B6A1B7A87F83C30544B5B6837
:1030C0001878534B1B68597807F13C030122FEF72F
:1030D000E9FB0346002B02D04FF0FF3358E2FB7FA1
:1030E000002B08D04A4B9B6A9B7A63F01F03DBB22C
:1030F00087F83C3004E0464B9B6A9B7A87F83C306B
:10310000434B5B681878424B1B68997907F13C0385
:103110000122FEF7C7FB0346002B02D04FF0FF331E
:1031200036E2FB7F002B08D0394B9B6ADB7A63F0D9
:103130001F03DBB287F83C3002E0182387F83C30ED
:10314000334B5B681878324B1B68D97907F13C0325
:103150000122FEF7A7FB0346002B02D04FF0FF33FE
:1031600016E2FB7F002B02D0C820FEF725FA402391
:1031700087F83C30264B5B681878254B1B6819791B
:1031800007F13C030122FEF78DFB0346002B02D022
:103190004FF0FF33FCE1782387F83C301C4B5B6831
:1031A00018781B4B1B68597907F13C030122FEF785
:1031B00079FB0346002B02D04FF0FF33E8E13223C6
:1031C0001846FEF7F9F9002387F83C30104B5B688E
:1031D00018780F4B1B68597907F13C030122FEF761
:1031E00061FB0346002B02D04FF0FF33D0E1084BC8
:1031F0005B681878064B1B68997A07F13C0302223A
:10320000FEF798FB0346002B04D04FF0FF33BFE1DD
:103210000000002097F83C301B021AB297F83D30AE
:103220001BB213431BB2A7F84C30B7F84C301A4A04
:10323000A2FB0323DB089BB287F84B307B6A191D86
:103240007B6A03F108020023136013680B600A68AD
:103250007B6A1A603B6A191D3B6A03F1080200236E
:10326000136013680B600A683B6A1A60002387F8D2
:103270004F308AE0094B5B681878084B1B68D97A95
:1032800007F13C030C22FEF755FB0346002B07D049
:103290004FF0FF337CE100BFABAAAAAA00000020D8
:1032A00097F83C301B021AB297F83D301BB213431B
:1032B0001BB2BB8697F83E301B021AB297F83F301C
:1032C0001BB213431BB2FB8697F840301B021AB2A5
:1032D00097F841301BB213431BB23B873B6A1A6815
:1032E000B7F934301A443B6A1A603B6A191D3B6ACD
:1032F00004331A68B7F9363013440B603B6A03F1A4
:1033000008013B6A08331A68B7F9383013440B6078
:1033100097F842301B021AB297F843301BB213439E
:103320001BB2BB8597F844301B021AB297F84530A0
:103330001BB213431BB2FB8597F846301B021AB22F
:1033400097F847301BB213431BB23B867B6A1A685F
:10335000B7F92C301A447B6A1A607B6A191D7B6AA4
:1033600004331A68B7F92E3013440B607B6A03F1FB
:1033700008017B6A08331A68B7F9303013440B60D0
:1033800097F84F30013387F84F3097F84F2097F870
:103390004B309A42FFF46EAF7B6A1B684FEAE374CE
:1033A000260446EA13461D0483234FF000041A4600
:1033B000234628463146FDF735FE03460C4618469F
:1033C000214697F84B304FF000041A462346FDF78C
:1033D00029FE03460C461A467B6A1A607B6A1D1D4D
:1033E0007B6A04331B684FEAE3744FEA044949EAF5
:1033F00013494FEA034883234FF000041A4623463B
:1034000040464946FDF70EFE03460C461846214647
:1034100097F84B304FF000041A462346FDF702FEA2
:1034200003460C462B607B6A03F108057B6A083370
:103430001B684FEAE37422047A617A6942EA134214
:103440007A611B043B6183234FF000041A46234634
:10345000D7E90401FDF7E6FD03460C461846214670
:1034600097F84B304FF000041A462346FDF7DAFD7B
:1034700003460C462B603B6A1B684FEAE374220448
:10348000FA60FA6842EA1342FA601B04BB604FF428
:1034900000634FF000041A462346D7E90201FDF706
:1034A000C1FD03460C461846214697F84B304FF0B5
:1034B00000041A462346FDF7B5FD03460C461A469E
:1034C0003B6A1A603B6A1D1D3B6A04331B684FEA66
:1034D000E37422047A607A6842EA13427A601B0439
:1034E0003B604FF400634FF000041A462346D7E9CF
:1034F0000001FDF797FD03460C461846214697F854
:103500004B304FF000041A462346FDF78BFD03466F
:103510000C462B603B6A03F108053B6A08331B68C5
:103520004FEAE3744FEA044B4BEA134B4FEA034A6A
:103530004FF400634FF000041A46234650465946A4
:10354000FDF770FD03460C461846214697F84B30B0
:103550004FF000041A462346FDF764FD03460C466F
:103560002B603B6A08331B68002B08DD3B6A08337D
:103570003A6A08321268A2F580321A6007E03B6AA4
:1035800008333A6A0832126802F580321A60002362
:1035900018465437BD46BDE8F08F00BF80B58EB0E9
:1035A00000AF78603960022387F82E30634B93F8C0
:1035B0002430002B06D0002000F0E4F9012387F826
:1035C0002F3002E0002387F82F3007F10C03184654
:1035D000FEF75EFE07F10F031846FEF7DFFE07F168
:1035E00008031846FEF77CFF07F10A031846FFF7A9
:1035F00001F8524B9B7A87F82D3007F10E031846DD
:10360000FFF7ECF800237B630AE000223968786852
:10361000FFF7A8FC0346002B08D07B6B01337B63CC
:1036200097F82E207B6B9A42EFDC00E000BF97F802
:103630002E207B6B9A4202D100233B6343E00023A0
:103640007B630DE007F1100107F11C03012218460E
:10365000FFF788FC0346002B08D07B6B01337B63AC
:1036600097F82E207B6B9A42ECDC00E000BF97F8C5
:103670002E207B6B9A4202D100233B6323E007F1AB
:10368000100319463868FFF72BFB034687F82C30E8
:1036900007F11C0319467868FFF7A8FB034687F873
:1036A0002B3000233B6397F82B30002B03D13B6B6F
:1036B00043F001033B6397F82C30002B03D13B6BA5
:1036C00043F002033B631D4BFF221A721B4BFF2288
:1036D0005A721A4BFF22DA72184B4FF6FF72DA81D8
:1036E000164BFF229A72154BFF221A74134B0122BC
:1036F0001A73BB891846FEF7FFFDFB7B1846FEF7E1
:1037000087FE3B891846FEF727FF7B891846FEF7A0
:1037100089FF97F82D301846FFF7C2F8BB7B184693
:10372000FFF76CF897F82F30002B02D0012000F043
:1037300029F93B6B18463837BD4680BD0000002094
:1037400080B584B000AF03463A60FB800B46BB8077
:103750003B68002B02D14FF0FF333DE0204B9B7ABA
:10376000002B02D14FF0FF3336E0FB881B0A9BB2DF
:10377000DBB23B73FB88DBB27B737B7B1A46BB8877
:103780001344174A52685289934202DD4FF0FF33C7
:1037900022E0134B5B681878114B1B68197E07F108
:1037A0000C030222FEF77EF80346002B02D04FF0F6
:1037B000FF3311E00A4B5B681878094B1B68597D91
:1037C000BB88DAB23B68FEF76DF80346002B02D0E7
:1037D0004FF0FF3300E0002318461037BD4680BD90
:1037E0000000002080B584B000AF03463A60FB8043
:1037F0000B46BB803B68002B02D14FF0FF333DE00E
:10380000204B9B7A002B02D14FF0FF3336E0FB8830
:103810001B0A9BB2DBB23B73FB88DBB27B737B7B07
:103820001A46BB881344174A52685289934202DDF4
:103830004FF0FF3322E0134B5B681878114B1B6885
:10384000197E07F10C030222FEF72CF80346002B29
:1038500002D04FF0FF3311E00A4B5B681878094B38
:103860001B68597DBB88DAB23B68FEF763F80346F4
:10387000002B02D04FF0FF3300E000231846103732
:10388000BD4680BD0000002080B58AB000AFB960A1
:1038900011461A460346FB810B46BB811346FB804B
:1038A000374B93F82530002B02D04FF0FF3362E006
:1038B000BB68002B02D14FF0FF335CE00023FB8498
:1038C00034E0FA89FB8CD31A102BA8BF1023BB84D9
:1038D000FB8CBA681A44B98CFB8C1846FFF730FF92
:1038E0000346002B02D04FF0FF3344E007F11402EF
:1038F000B98CFB8C1846FFF775FF0346002B02D0EE
:103900004FF0FF3337E0FB8CBA681344BA8C07F1F1
:103910001401184607F02EFC0346002B02D06FF06E
:10392000010328E0FA8CBB8C1344FB84FA8CFB89DE
:103930009A42C6D3BB891B0A9BB2DBB23B74BB89DC
:10394000DBB27B740E4B5B6818780D4B1B68997E5D
:1039500007F110030222FDF7A5FF0346002B02D05A
:103960004FF0FF3307E0064B012283F82520044A7D
:10397000FB88D384002318462837BD4680BD00BF8E
:103980000000002080B584B000AF0346FB71264BD9
:1039900093F82430FA799A4201D1002340E0FB7970
:1039A000002B27D0204B93F82530002B02D14FF06D
:1039B000FF3335E00020FEF783F90020FEF7F6FF25
:1039C000194BDB8C1846FEF72DFE0023FB73164BBC
:1039D0005B68187807F10F0301222321FDF762FFCE
:1039E000114B012283F824200120FEF769F9FEF72C
:1039F00051FB14E00020FEF763F90B4B1B7CFB73BB
:103A0000094B5B68187807F10F0301222321FDF7AA
:103A100049FF054B002283F82420FEF73BFB0023DF
:103A200018461037BD4680BD0000002080B500AFAD
:103A30004FF48062C823044940F6F630FFF724FFB4
:103A40000346184680BD00BF78DB000880B588B00B
:103A500000AF0346FB806D4A07F11403118892788A
:103A600019809A706A4A07F11003118892781980B8
:103A70009A70684A07F10C031188927819809A703D
:103A8000654A07F108031188927819809A70FB88BB
:103A900003F0030307F12002134413F80C3C3B77B7
:103AA000FB88DB089BB203F0030307F120021344F9
:103AB00013F80C3C7B77FB889B099BB203F0030354
:103AC00007F12002134413F80C3CBB77FB8803F08A
:103AD000030307F12002134413F8103C3B76FB88E4
:103AE000DB089BB203F0030307F12002134413F831
:103AF000103C7B76FB889B099BB203F0030307F124
:103B00002002134413F8103CBB7607F11C031A463D
:103B1000032140F22640FFF713FE0346002B02D09C
:103B20004FF0FF336EE007F118031A46032140F20D
:103B30002A40FFF705FE0346002B02D04FF0FF336B
:103B400060E007F11C0307F10C02126811461980AE
:103B50000233120C1A7007F1180307F108021268F9
:103B6000114619800233120C1A70FB8803F004030B
:103B7000002B09D03B7F43F00103DBB23B773B7E58
:103B800043F00103DBB23B76FB8803F02003002BFC
:103B900009D07B7F43F00103DBB27B777B7E43F070
:103BA0000103DBB27B76FB8803F48073002B09D022
:103BB000BB7F43F00103DBB2BB77BB7E43F0010365
:103BC000DBB2BB7607F11C031A4603214FF4886071
:103BD000FFF7B6FD0346002B02D04FF0FF3311E094
:103BE00007F118031A46032140F23140FFF7A8FD00
:103BF0000346002B02D04FF0FF3303E0074AFB8857
:103C00001381002318462037BD4680BD58D80008D0
:103C10005CD8000860D8000864D80008FC000020C8
:103C20002DE9F04B86B000AF78606A4B1B8903F03A
:103C300003039B00786803441B68FB60654B1B898A
:103C400003F00403002B02D0FB685B42FB60614B76
:103C50001B89DB089BB203F003039B0078680344D5
:103C60001B683B615B4B1B8903F02003002B02D0D8
:103C70003B695B423B61574B1B899B099BB203F03D
:103C800003039B00786803441B687B61514B1B89CD
:103C900003F48073002B02D07B695B427B61FB687D
:103CA0004FEAE3744C4800FB04FE002000FB03F0E5
:103CB0007044494AA3FB0234204404464FEA9378F7
:103CC00048EA84084FEAA4794346FB603B694FEA1F
:103CD000E374414800FB04FE002000FB03F0704445
:103CE0003D4AA3FB0234204404469D0F45EA840567
:103CF000A6172B463B617B694FEAE374364800FB0D
:103D000004F5002000FB03F02844334DA3FB0534E9
:103D1000204404464FEA937B4BEA840B4FEAA47C91
:103D20005B467B61FB681B16DBB23B72FB681B14B6
:103D3000DBB27B72FB681B12DBB2BB72FB68DBB2CF
:103D4000FB7207F108031A4604214FF47470FFF761
:103D5000F7FC0346002B02D04FF0FF3334E03B6901
:103D60001B16DBB23B723B691B14DBB27B723B69F7
:103D70001B12DBB2BB723B69DBB2FB7207F10803BB
:103D80001A4604214FF47570FFF7DAFC0346002B46
:103D900002D04FF0FF3317E07B691B16DBB23B729A
:103DA0007B691B14DBB27B727B691B12DBB2BB72BB
:103DB0007B69DBB2FB7207F108031A4604214FF45A
:103DC0007670FFF7BDFC034618461837BD46BDE8C0
:103DD000F08B00BFFC00002009E3CA022DE9B04FC0
:103DE0008EB000AFF86007F116031846FEF7B8FC76
:103DF000FB8A9AB24FF00003DD0345EA5245D40333
:103E0000C7E90C455F4B1B8903F003039B00FA686D
:103E100013441B687B625B4B1B8903F00403002B7C
:103E200002D07B6A5B427B62564B1B89DB089BB2EC
:103E300003F003039B00FA6813441B68BB62514BF9
:103E40001B8903F02003002B02D0BB6A5B42BB62DC
:103E50004C4B1B899B099BB203F003039B00FA6840
:103E600013441B68FB62474B1B8903F48073002BD0
:103E700002D0FB6A5B42FB627B6A4FEAE3743A6BF7
:103E800004FB02F17A6B03FB02F20A44396BA1FBDB
:103E90000334224414469A0F3A603A6842EA840294
:103EA0003A60A3177B603B687B62BB6A4FEAE374AE
:103EB0003A6B04FB02F17A6B03FB02F20A44396BA2
:103EC000A1FB0334224414464FEA937A4AEA840A57
:103ED0004FEAA47B5346BB62FB6A4FEAE3743A6B3A
:103EE00004FB02F17A6B03FB02F20A44396BA1FB7B
:103EF0000334224414464FEA937848EA84084FEA90
:103F0000A4794346FB627B6A1B16DBB23B767B6A75
:103F10001B14DBB27B767B6A1B12DBB2BB767B6A3F
:103F2000DBB2FB76BB6A1B16DBB23B77BB6A1B14AA
:103F3000DBB27B77BB6A1B12DBB2BB77BB6ADBB23F
:103F4000FB77FB6A1B16DBB287F82030FB6A1B1479
:103F5000DBB287F82130FB6A1B12DBB287F8223014
:103F6000FB6ADBB287F8233007F118031A460C21ED
:103F70004FF42570FFF7E4FB034618463837BD467B
:103F8000BDE8B08FFC00002080B588B000AF0346CC
:103F9000FB80204A07F1100310685168926807C33C
:103FA000FB88C82B02D94FF0FF332EE0FB88C822D4
:103FB00092FBF3F39BB2013BFB83FB8B1B0A9BB28F
:103FC000DBB23B72FB8BDBB27B7207F108031A4654
:103FD000022140F21620FFF7B3FB0346002B02D06C
:103FE0004FF0FF3311E007F110031A460C2140F6A1
:103FF000C120FFF7A5FB0346002B02D04FF0FF3393
:1040000003E0054AFB889381002318462037BD460C
:1040100080BD00BF68D80008FC00002080B586B0D5
:1040200000AF03460A46FB711346BB80FB7903F0E1
:104030000703002B03D0BB88B3F5C86F02D94FF03C
:10404000FF3307E1BB881846FCF788FD0346834928
:104050001846FCF78FFE03463B6107F10B03184639
:10406000FEF79CF9FB7A023B0E2B79D801A252F89D
:1040700023F000BFB140000861410008DD400008A6
:1040800061410008614100086141000809410008E0
:104090006141000861410008614100086141000878
:1040A0006141000861410008614100083541000894
:1040B0004FF08D413869FCF7A9FD03461846FCF71F
:1040C00091FF0346FB8266493869FCF79FFD034672
:1040D0001846FCF787FF0346BB8244E04FF08C4153
:1040E0003869FCF793FD03461846FCF77BFF03464F
:1040F000FB825C493869FCF789FD03461846FCF7EA
:1041000071FF0346BB822EE04FF08B413869FCF70C
:104110007DFD03461846FCF765FF0346FB825249C6
:104120003869FCF773FD03461846FCF75BFF03464E
:10413000BB8218E04FF08A413869FCF767FD0346FF
:104140001846FCF74FFF0346FB8248493869FCF7E5
:104150005DFD03461846FCF745FF0346BB8202E0BF
:104160004FF0FF3376E0FB8A1B0A9BB2DBB23B7356
:10417000FB8ADBB27B73BB8A1B0A9BB2DBB2BB73CD
:10418000BB8ADBB2FB73FB7903F00103002B1CD06D
:1041900007F10C031A4602214FF4EA70FFF7D0FA38
:1041A0000346002B02D04FF0FF3353E007F10C031E
:1041B00002331A4602214FF49270FFF7C1FA034608
:1041C000002B02D04FF0FF3344E0FB7903F00203F1
:1041D000002B1CD007F10C031A4602214FF4EC709F
:1041E000FFF7AEFA0346002B02D04FF0FF3331E069
:1041F00007F10C0302331A4602214FF49470FFF7C3
:104200009FFA0346002B02D04FF0FF3322E0FB79E8
:1042100003F00403002B1CD007F10C031A46022103
:104220004FF4EE70FFF78CFA0346002B02D04FF0EC
:10423000FF330FE007F10C0302331A4602214FF45B
:104240009670FFF77DFA0346002B02D04FF0FF3344
:1042500000E0002318461837BD4680BD00004843E3
:10426000000040460000C045000040450000C0443A
:1042700080B584B000AF0346FB710023FB73FB796C
:1042800003F00103002B04D0FB7B43F03003DBB2CF
:10429000FB73FB7903F00203002B04D0FB7B43F09C
:1042A0000C03DBB2FB73FB7903F00403002B04D097
:1042B000FB7B43F00303DBB2FB7307F10F031A46EA
:1042C00001214FF4A470FFF73BFA0346184610375C
:1042D000BD4680BD80B584B000AF0346FB71FB795D
:1042E000002B02D10123FB7104E0FB79042B01D9DF
:1042F0000423FB71FB79013BDBB2FB7307F10F0376
:104300001A46012140F24F10FFF71AFA03461846E9
:104310001037BD4680BD00BF80B584B000AF0346F6
:10432000FB80FB880C4AA2FB03239B08FB81FB89D3
:104330001B0A9BB2DBB23B73FB89DBB27B7307F1D9
:104340000C031A4602214FF4EF70FFF7F9F9034608
:1043500018461037BD4680BDCDCCCCCC80B584B0DE
:1043600000AF0346FB80FB880C4AA2FB03239B089B
:10437000FB81FB891B0A9BB2DBB23B73FB89DBB27F
:104380007B7307F10C031A4602214FF4ED70FFF71F
:10439000D7F9034618461037BD4680BDCDCCCCCCEE
:1043A00080B584B000AF78600B467B807B68134A91
:1043B00082FB03129211DB17D31A7A8802FB03F3F4
:1043C000FB60FB681B16DBB23B72FB681B14DBB2A5
:1043D0007B72FB681B12DBB2BB72FB68DBB2FB7249
:1043E00007F108031A4604214FF4AE70FFF7A8F94D
:1043F000034618461037BD4680BD00BFD34D62103E
:1044000080B584B000AF0346FB80FB880C4AA2FB5A
:1044100003239B08FB80FB881B0A9BB2DBB23B7328
:10442000FB88DBB27B7307F10C031A4602214FF4C1
:10443000AD70FFF785F9034618461037BD4680BDBD
:10444000CDCCCCCC80B584B000AF0346FB80FB88DC
:104450000C4AA2FB03239B08FB80FB881B0A9BB230
:10446000DBB23B73FB88DBB27B7307F10C031A46AC
:1044700002214FF4AC70FFF763F90346184610377A
:10448000BD4680BDCDCCCCCC80B586B000AF034658
:10449000FB8002233B73CA237B73E323BB73092393
:1044A000FB7307F10C031A4604216820FFF748F953
:1044B000A3233B73FB8803F04003002B06D0C023EB
:1044C0007B73C823BB73C223FB7305E0A3237B73F9
:1044D000A323BB73A323FB73FB8803F4C073002BDC
:1044E00006D0C4233B74CC237B74C623BB7405E085
:1044F000A3233B74A3237B74A323BB74A323FB7468
:10450000A3233B75A3237B7507F10C031A460A21ED
:1045100040F6A720FFF714F9FB8803F00303002BF4
:1045200002D020233B7301E0D8233B7307F10C0337
:104530001A46012140F6B620FFF702F9FB8803F086
:104540002003002B03D0012000F0C6F802E0002079
:1045500000F0C2F8FB8803F4C073002B1DD0FB8869
:1045600003F48073002B08D0B2233B738B237B733F
:10457000B623BB739B23FB7307E0B0233B738023FD
:104580007B73B423BB739023FB7307F10C031A46B0
:10459000042140F6A220FFF7D3F8FB8803F00103C3
:1045A000002B25D0F8233B7307F10C031A46012199
:1045B0004FF40B60FFF7C4F8FA210720FFF72EFD38
:1045C0000720FFF755FE0120FFF784FE6420FFF768
:1045D000A3FE4FF4FA70FFF7C1FEC8213C48FFF775
:1045E000DFFE2820FFF70CFF0A20FFF72BFF09E072
:1045F000D8233B7307F10C031A4601214FF40B60DB
:10460000FFF79EF8FB8803F00203002B02D0D923AA
:104610003B7301E0D8233B7307F10C031A460121D9
:1046200040F23D70FFF78CF8FB8803F00403002B89
:1046300003D0012000F084F802E0002000F080F8B0
:10464000FB8803F01003002B03D0012000F0A0F83A
:1046500002E0002000F09CF8FB8843F008039AB2C7
:104660001C4B5A81FDF716FD1A4B00229A73FB88EA
:1046700003F04003002B05D0164B9B7B0633DAB2C8
:10468000144B9A73FB8803F4C073002B05D0114BB5
:104690009B7B0633DAB20F4B9A73FB8803F014034B
:1046A000002B05D00B4B9B7B1033DAB2094B9A736E
:1046B000FB8803F00303002B05D0064B9B7B0433E0
:1046C000DAB2044B9A73002318461837BD4680BDF2
:1046D00009E3CA02FC00002080B588B000AF0346A1
:1046E000FB71FB79002B11D0134A07F114031068FA
:1046F000516803C3127A1A7007F114031A4609218C
:104700004FF49760FFF71CF8034610E00B4A07F1DF
:1047100008031068516803C3127A1A7007F108037E
:104720001A4609214FF49760FFF70AF80346184626
:104730002037BD4680BD00BF74D8000880D800086F
:1047400080B584B000AF0346FB71FB79002B08D025
:10475000C0233B73C2237B73C423BB73C623FB7389
:1047600006E007F10C0304228B21184606F01CFD1D
:1047700007F10C031A46042140F69820FEF7E0FFEB
:10478000FDF788FC034618461037BD4680BD00BFC4
:1047900080B584B000AF0346FB71FB79002B08D0D5
:1047A00020233B7328237B733023BB733823FB7395
:1047B00006E007F10C030422A321184606F0F4FCDE
:1047C00007F10C031A46042140F69E20FEF7B8FFBD
:1047D000FDF760FC034618461037BD4680BD00BF9C
:1047E00080B400AFBFF34F8F0549054BDB6803F47E
:1047F000E062044B1343CB60BFF34F8F00BFFDE774
:1048000000ED00E00400FA0580B485B000AF7860E8
:104810007B6893F90030002B02DD0023FB812DE043
:104820007B6893F90030002B02DA0423FB8125E03A
:104830007B68013393F90030002B02DD0123FB81FB
:104840001CE07B68013393F90030002B02DA05236A
:10485000FB8113E07B68023393F90030002B02DD0B
:104860000223FB810AE07B68023393F90030002BBE
:1048700002DA0623FB8101E00723FB81FB8918464E
:104880001437BD4680BC704780B584B000AF7860F7
:104890007868FFF7B9FF0346FB817B68033318464E
:1048A000FFF7B2FF0346DB001AB2B7F90E3013432D
:1048B0001BB2FB817B6806331846FFF7A5FF034652
:1048C0009B011AB2B7F90E3013431BB2FB81FB896F
:1048D00018461037BD4680BD80B58AB000AF07F1DD
:1048E0000C0207F1180311461846FEF757FE7862CE
:1048F0007B6A072B54D107F108031846FDF7F8FE31
:10490000BB691846FCF72EF90246BB6819461046EB
:10491000FCF77CF903461846FCF73EFB0346BB61F7
:10492000FB691846FCF71EF90246BB68194610469B
:10493000FCF76CF903461846FCF72EFB0346FB61B7
:104940003B6A1846FCF70EF90246BB68194610464A
:10495000FCF75CF903461846FCF71EFB03463B6276
:1049600007F118031846FFF75BF9BB1D1846FDF762
:10497000F7FEFB68FA8802FB03F3FB603B69FA88E9
:1049800002FB03F33B617B69FA8802FB03F37B6163
:1049900007F10C031846FFF721FA034806F07EFCE6
:1049A00000BF2837BD4680BDA4D8000880B584B0BC
:1049B00002AF0346FB71FB790093032302226B21B4
:1049C000D020FDF7EBF800BF0837BD4680BD00BF23
:1049D00080B584B002AF0346FB71FB7900930223DC
:1049E00004221B21D020FDF7D9F800BF0837BD46AF
:1049F00080BD00BF80B584B002AF0346FB71FB7978
:104A00000093022304221C21D020FDF7C7F800BF29
:104A10000837BD4680BD00BF80B582B000AF0346F9
:104A2000FB71FB7906226B21D020FDF70DF900BF49
:104A30000837BD4680BD00BF80B582B000AF0346D9
:104A4000FB71FB7905226A21D020FDF7FDF800BF3C
:104A50000837BD4680BD00BF80B582B000AF0346B9
:104A6000FB71FB7901223721D020FDF7EDF800BF63
:104A70000837BD4680BD00BF80B500AF0220FFF7FC
:104A800095FF0320FFF7A4FF0020FFF7B3FF0020EE
:104A9000FFF7C2FF0020FFF7CFFF0020FFF7DCFF8A
:104AA00000BF80BD80B582B000AF00233B713B1DCD
:104AB000012275216820FCF73DFF2F4806F0EEFB30
:104AC0003B79682B01D0FFF78BFEFDF753F90346C6
:104AD000002B4DD17820FDF7E3FE0346002B02D1D9
:104AE000254806F0DBFB7820FDF788FE0346002B07
:104AF00002D1224806F0D2FBC820FDF793FD034601
:104B0000002B02D11E4806F0C9FBFEF78FFF0346BB
:104B1000002B02D11B4806F0C1FB1B48FFF7B4FE77
:104B200003461846FEF792FF0346002B02D11748B2
:104B300006F0B4FB40F27310FFF7A6FC0346002B0F
:104B400002D1134806F0AAFBC820FFF71DFA03465E
:104B5000002B02D10F4806F0A1FBFFF7BDFE01209C
:104B6000FEF710FF0346002B02D10B4806F096FB20
:104B700000BF0837BD4680BDC8D80008E8D8000887
:104B80000CD9000834D900082C00002068D900088E
:104B900090D90008B4D90008D8D9000890B583B0DE
:104BA00000AF786039608F4B1B6819463868FBF797
:104BB00023FF03461A468C4B1B6819461046FCF728
:104BC00025F803461A46894B1B6819461046FBF721
:104BD00015FF03461A46854B1A60854B1A68854BAC
:104BE0005B6819461046FBF707FF03461A46814BE0
:104BF0009B6819461046FBF7FFFE03461A467E4B9C
:104C00001A607C4BDB6883F000437B4A5360794B2E
:104C1000DB6883F00043784A9360784B1B68764AE0
:104C2000D360744B1C68744B1A686F4B1B68194631
:104C30001046FBF7EBFF034619462046FBF7DEFE66
:104C400003461A466B4B1A606A4B5C686A4B5A689B
:104C5000654B1B6819461046FBF7D8FF03461946FB
:104C60002046FBF7CBFE03461A46624B5A60614B67
:104C70009C68614B9A685C4B1B6819461046FBF7B1
:104C8000C5FF034619462046FBF7B8FE03461A4601
:104C9000584B9A60574BDC68574BDA68524B1B688D
:104CA00019461046FBF7B2FF034619462046FBF7AC
:104CB000A5FE03461A464F4BDA604C4B1B6819465B
:104CC0007868FBF799FE03461A464D4B1A604D4B28
:104CD0001B781846FBF746FF0246464B1B681946F1
:104CE0001046FBF793FF03461A46474B1A60454BA5
:104CF0001B781846FBF736FF02463E4B9B68194669
:104D00001046FBF783FF03461A46404B1A603D4BA3
:104D10001B781846FBF726FF02463B4B1B681946DB
:104D20001046FBF773FF03461A46394B1B681946BA
:104D30001046FBF763FE03461A46364B1A60324BA9
:104D40001A68344B1B6819461046FCF713F80346E3
:104D50001A46314B1A602D4B1A682E4B1B681946A8
:104D60001046FCF707F803461A462C4B1A60264BF0
:104D70001B682B4A1360234B1B781846FBF7F2FE87
:104D800002461C4B5B6819461046FBF73FFF034683
:104D90001A46244B1A60174B1C681F4B1A68204B8D
:104DA0001B6819461046FBF731FF0346194620469B
:104DB000FBF722FE03461A460E4B1A600D4B5C6849
:104DC000154B1A68174B1B6819461046FBF71EFF58
:104DD000034619462046FBF70FFE03461A46054BCD
:104DE0005A6021E014010020440000200C01002042
:104DF000380000204C000020380100203C0000203A
:104E000018010020480000201C0100202001002083
:104E10004000002024010020280100202C01002057
:104E200030010020340100202D4B9C682D4B1A6866
:104E30002D4B1B6819461046FBF7E8FE0346194642
:104E40002046FBF7D9FD03461A46254B9A60244BB2
:104E5000DC68244B1A68254B1B6819461046FBF783
:104E6000D5FE034619462046FBF7C6FD03461A4603
:104E70001B4BDA601E4B1A681E4B1B681946104606
:104E8000FBF7C4FE03461A461B4B1B681946104627
:104E9000FBF7B4FD03461A46174B1A60114B1A680C
:104EA000144B1B6819461046FBF7B0FE03461A4622
:104EB000124B1B6819461046FBF7A0FD03461A4625
:104EC0000E4B1A600D4B1B6819463868FBF794FDB2
:104ED00003461A460A4B1A6000BF0C37BD4690BD08
:104EE0004C0000202C010020300100203401002063
:104EF00028010020180100200C01002014010020CE
:104F00001001002080B584B000AF3B1D00221A6064
:104F10005A609A60184B194A1A60174B00229A601F
:104F2000154B01221A73144B00221A75124B4FF4C1
:104F30006022DA61104B00225A600F4B01221A6185
:104F40000D4801F0E1FA0346002B01D000F01EFEEF
:104F500004237B600123BB600523FB603B1D1946D6
:104F6000054801F057FC0346002B01D000F00EFE6F
:104F700000BF1037BD4680BD48010020002401401D
:104F800080B588B000AF786007F1100300221A6086
:104F90005A609A60DA607B681B68144A934221D198
:104FA000134A134B9B6943F400739361104B9B6945
:104FB00003F40073FB60FB680D4A0D4B9B6943F0E3
:104FC000040393610A4B9B6903F00403BB60BB6855
:104FD00010233B6103237B6107F110031946054849
:104FE00001F0F6FE00BF2037BD4680BD0024014021
:104FF000001002400008014080B485B000AFF860A6
:10500000B9607A60FB68064A1A60BB68054A1A6094
:105010007B6880221A6000BF1437BD4680BC704791
:10502000D80600202C070020B0B590B000AF0023B8
:10503000BB630023FB6307F138030121184604F02A
:1050400021FA0246144B1A60144B07F11C041D464A
:105050000FCD0FC495E8070084E8070007F11C0393
:105060000021184604F0AEF902460D4B1A600D4BB4
:105070003C461D460FCD0FC495E8070084E80700A5
:105080003B460021184604F09DF90246064B1A6083
:1050900000BF4037BD46B0BDD406002008DA000886
:1050A000CC06002030DA0008D006002080B582B09F
:1050B00000AF7860C82004F0D1F9FBE790B583B069
:1050C00000AF7860052004F0C9F900F06DF82A4BB4
:1050D0001A682A4B1B681946104600F039FA024636
:1050E000274B1A60022000F0CFFB03465B421846B4
:1050F000FBF738FD0246234B1A60042000F0C4FB86
:1051000003461846FBF72EFD02461F4B1A601D4B47
:105110001B681846FBF740FF04461B4B1B681846EC
:10512000FBF73AFF03461946204600F0E1FA024633
:10513000164B1A60124B1A68144B1B681344144A1E
:1051400013600F4B1A68114B1B681344114A13600C
:105150000F4B1A680E4B1B681946104600F02AFACE
:105160000D4B1B685B6A0D4A13600D4B1B685B6A35
:105170000C4A1360A6E700BF0C010020980600202F
:10518000BC060020AC060020B0060020C0060020AF
:10519000B4060020B8060020C0010020C40600208C
:1051A00008020020C80600202DE9B0438AB000AFF5
:1051B0004321D020FCF75AFC03461C024421D02096
:1051C000FCF754FC034623441846FBF7CBFC03468C
:1051D0007B614521D020FCF749FC03461C02462197
:1051E000D020FCF743FC034623441846FBF7BAFCE7
:1051F00003463B614721D020FCF738FC03461C02E4
:105200004821D020FCF732FC034623441846FBF724
:10521000A9FC03467B623B21D020FCF727FC034618
:105220001C023C21D020FCF721FC034623441846F5
:10523000FBF798FC0346FB613D21D020FCF716FCF0
:1052400003461C023E21D020FCF710FC03462344F9
:105250001846FBF787FC03463B623F21D020FCF752
:1052600005FC03461C024021D020FCF7FFFB03464F
:1052700023441846FBF776FC0346BB614FF08E4192
:105280007869FBF77FFE0346002B06D04FF08F4175
:105290007869FBF7B1FB03467B614FF08E413869BB
:1052A000FBF770FE0346002B06D04FF08F413869A4
:1052B000FBF7A2FB03463B614FF08E41786AFBF798
:1052C00061FE0346002B06D04FF08F41786AFBF752
:1052D00093FB03467B624FF08E41F869FBF752FE69
:1052E0000346002B06D04FF08F41F869FBF784FB93
:1052F0000346FB614FF08E41386AFBF743FE0346DD
:10530000002B06D04FF08F41386AFBF775FB034640
:105310003B624FF08E41B869FBF734FE0346002B29
:1053200006D04FF08F41B869FBF766FB0346BB61BF
:105330004FF08D41F869FBF71DFD0346FB604FF010
:105340008D41386AFBF716FD0346BB604FF08D4177
:10535000B869FBF70FFD03467B607869FBF76AF8D5
:105360006BA3D3E90023FBF7E3F903460C46184689
:105370002146FBF7EDFA02466D4B1A606C4B1B6839
:105380001846FBF757F864A3D3E90023FAF7F4FEB5
:1053900003460C4618462146FBF7DAFA0246644BF0
:1053A0001A60B868FBF746F804460D46F868FBF744
:1053B00041F84FF000024FF0804307F0BFF88046FD
:1053C00089467868FBF736F84FF000024FF08043CB
:1053D00007F0B4F802460B4640464946FAF7CCFEC1
:1053E00002460B461046194607F040FA02460B46A5
:1053F00020462946FBF79CF903460C4618462146F1
:1054000006F0FAFE4FF000024A4BFBF767F803463E
:105410000C461846214642A3D3E90023FBF788F93E
:1054200003460C4618462146FBF792FA0246424BC9
:105430001A60FB6883F000431846FAF7FBFF044646
:105440000D46B868FAF7F6FF4FF000024FF08043C0
:1054500007F074F8804689467868FAF7EBFF4FF05A
:1054600000024FF0804307F069F802460B464046C1
:105470004946FAF781FE02460B461046194607F0E8
:10548000F5F902460B4620462946FBF751F903463B
:105490000C461846214606F0AFFE4FF00002254BA1
:1054A000FBF71CF803460C46184621461CA3D3E91B
:1054B0000023FBF73DF903460C46184621461AA384
:1054C000D3E90023FAF758FE03460C461846214656
:1054D000FBF73EFA03463B60174B1A68144B1B68F8
:1054E00019461046FFF75AFB144B1B68144A136009
:1054F0000F4B1B68134A1360134A7B6A1360134AED
:105500007B68136000BF18462837BD46BDE8B083EE
:105510006666666666663040EC51B81E85EBE13F14
:10552000F1D4C853FB21094048E17A14AE47F93F52
:10553000A806002000806640A40600200C01002080
:1055400094060020980600209C060020A00600205B
:10555000B0B584B000AF786039607B68FB601449F7
:10556000F868FBF753FB03461846FAF763FF044657
:105570000D463868FAF75EFF0BA3D3E90023FAF76C
:10558000ADFF02460B4620462946FAF7F5FD0346D5
:105590000C4618462146FBF7B3F90346BB60BB68CF
:1055A00018461037BD46B0BD333333333333D33FA2
:1055B0000000604190B583B000AF786039607B68CF
:1055C000002B0CDA00224FF48051224801F05AFDE2
:1055D00001224FF400511F4801F054FD0BE001225D
:1055E0004FF480511B4801F04DFD00224FF4005153
:1055F000184801F047FD184B1C68786800F02EF839
:10560000034623643B68002B0CDA01224FF48041EF
:10561000104801F037FD00224FF400410D4801F021
:1056200031FD0BE000224FF480410A4801F02AFDD1
:1056300001224FF40041074801F024FD064B1C688D
:10564000386800F00BF80346636300BF0C37BD46B3
:1056500090BD00BF000C01407801002080B485B0EF
:1056600000AF78607B68002B03DA7B686433FB60F3
:1056700003E07B68C3F16403FB60FB6818461437E2
:10568000BD4680BC704700BF80B584B000AF786075
:105690000023FB73124B1B680133114A1360104B3C
:1056A0001B68104A934202D10D4B0F4A1A600C4BF3
:1056B0001B6801221946786803F00CFB0346FB7354
:1056C000FB7B002BF3D1064B1B68013B1B780A2B9D
:1056D00002D1064B01221A6000BF1037BD4680BDC3
:1056E0005C00002090060020900200209006002020
:1056F000B0B582B000AF786039607A683B68134417
:105700001846FBF72FFA0246554B1A60554B1B689B
:105710001846FAF78FFE4CA3D3E90023FAF7DEFE12
:1057200003460C4618462146FBF712F902464D4B3C
:105730001A604C4B1B681846FAF77CFE04460D466F
:10574000474B1B681846FAF775FE41A3D3E90023BF
:10575000FAF7C4FE02460B4620462946FAF70CFD2E
:1057600003460C4618462146FBF7F2F802463D4B2D
:105770001A603D4B1A683B4B1B6819461046FBF7F5
:105780003DF903461A46384B1A60374B1B683749B8
:105790001846FBF7F7FB0346002B02D0324B334A87
:1057A0001A60314B1B6832491846FBF7CDFB0346A4
:1057B000002B02D02C4B2E4A1A602A4B1B6818462D
:1057C000FAF738FE4FF033322A4BFAF787FE0346DA
:1057D0000C4625461C46244B1B681846FAF72AFE41
:1057E0001DA3D3E90023FAF779FE02460B462046B3
:1057F0002946FAF7C1FC03460C4618462146FBF73A
:10580000A7F802461C4B1A601C4B1B681C49184623
:10581000FBF79AFB0346002B08D1184B1B6819496C
:105820001846FBF7AFFB0346002B03D00E4B4FF09F
:1058300000021A60104B1B681846FBF7ADFB0346CD
:1058400018460837BD46B0BD9A9999999999E93F8C
:105850009A9999999999C93FFA7E6ABC7493783F4D
:105860002C090020300900203409002000401C468B
:1058700000401CC63333F33F380900200C010020E0
:10588000000020C20000204280B485B000AF034673
:10589000FB71FB79022B02D0042B0AD013E00E4BD4
:1058A0001B685B6A1BB2FB600B4B1B6800225A62D1
:1058B0000BE00A4B1B685B6A1BB2FB60074B1B6863
:1058C00000225A6201E00023FB60FB68184614378F
:1058D000BD4680BC704700BFC00100200802002008
:1058E00080B588B000AF07F1100300221A605A603B
:1058F0009A60DA603E4A3E4B9B6943F02003936115
:105900003B4B9B6903F02003FB60FB68384A384B34
:105910009B6943F004039361354B9B6903F00403D7
:10592000BB60BB68324A324B9B6943F0080393610A
:105930002F4B9B6903F008037B607B6800224FF4C8
:1059400073412C4801F09EFB00224FF480512A48FD
:1059500001F098FB4FF480533B6101237B610123ED
:10596000BB610223FB6107F110031946214801F0D6
:105970002FFA4FF460433B6101237B610023BB613D
:105980000223FB6107F1100319461A4801F020FABF
:105990004FF480533B6101237B610223BB610223EF
:1059A000FB6107F110031946134801F011FA4FF497
:1059B00000433B6100237B610123BB6107F11003BE
:1059C00019460D4801F004FA4FF440733B6101237E
:1059D0007B610123BB610323FB6107F110031946BF
:1059E000044801F0F5F900BF2037BD4680BD00BF77
:1059F00000100240000C01400008014080B500AFDB
:105A000000F050FD00F054F8FFF76AFF00F0CCFC06
:105A1000FFF778FA00F0C2FA00F052FB00F0A4FBA6
:105A20001E4800F0BDF81E4800F046FEFBF760FD82
:105A3000FFF722F8FFF736F800211A4802F038F98C
:105A40000C21184802F034F9174B1B686FF0010263
:105A50001A61154B1B686FF001021A61134B1B682A
:105A60006FF001021A61114B1B686FF001021A619D
:105A70003C210D4802F060FA3C210C4802F05CFA2F
:105A8000094B1B6800225A62084B1B6800225A62AD
:105A9000FFF7CAFA03F08EFCFEE700BF50020020B9
:105AA0004801002078010020C001002008020020E9
:105AB00080B594B000AF07F12803282200211846D2
:105AC00005F072FB07F1140300221A605A609A6015
:105AD000DA601A613B1D00221A605A609A60DA602F
